:100000000C94D2030C94FA030C94FA030C94FA03A4
:100010000C94FA030C94FA030C94FA030C94FA036C
:100020000C94FA030C94FA030C94FA030C94FA035C
:100030000C94FA030C94FA030C94FA030C94FA034C
:100040000C94490A0C94FA030C9491090C946B09D2
:100050000C94FA030C94FA030C94FA030C94FA032C
:100060000C94ED110C94FA0307F30FFF1F3E1F1CB5
:100070001F7C197C1CFC1FFC1FBC1F1C1F0C1F4C71
:100080003F1C7F38EFF8C7F007F00F781F381F1CB0
:100090001F4C194C1C1C1E3C1E3C1C1C190C1F4CDC
:1000A0001F1C1F380FF807F0000303C71FFE7FFE59
:1000B000FE7FF07F47E21FF81FF80F300E001D8013
:1000C0003BC073C0E180C000000003C01FF87FFE8A
:1000D000FE3FF00F47E21FF81FF80C3000000180D0
:1000E00003C003C0018000000000000800020100FE
:1000F00000030407000000000000000000000000F2
:10010000003E5B4F5B3E3E6B4F6B3E1C3E7C3E1C9D
:10011000183C7E3C181C577D571C1C5E7F5E1C00E3
:10012000183C1800FFE7C3E7FF0018241800FFE79A
:10013000DBE7FF30483A060E2629792926407F055D
:100140000507407F05253F5A3CE73C5A7F3E1C1C73
:1001500008081C1C3E7F14227F22145F5F005F5F33
:1001600006097F017F006689956A6060606060941F
:10017000A2FFA29408047E040810207E2010080824
:100180002A1C08081C2A08081E101010100C1E0C2F
:100190001E0C30383E3830060E3E0E0600000000C1
:1001A0000000005F00000007000700147F147F14A8
:1001B000242A7F2A122313086462364956205000ED
:1001C00008070300001C2241000041221C002A1CD9
:1001D0007F1C2A08083E08080080703000080808C4
:1001E0000808000060600020100804023E514945E4
:1001F0003E00427F400072494949462141494D3302
:100200001814127F1027454545393C4A4949314168
:10021000211109073649494936464949291E000036
:10022000140000004034000000081422411414148B
:100230001414004122140802015909063E415D5977
:100240004E7C1211127C7F494949363E4141412280
:100250007F4141413E7F494949417F090909013EAA
:10026000414151737F0808087F00417F41002040D1
:10027000413F017F081422417F404040407F021CE3
:10028000027F7F0408107F3E4141413E7F090909FA
:10029000063E4151215E7F091929462649494932C6
:1002A00003017F01033F4040403F1F2040201F3F8C
:1002B0004038403F63140814630304780403615911
:1002C000494D43007F414141020408102000414153
:1002D000417F0402010204404040404000030708FF
:1002E0000020545478407F284444383844444428FB
:1002F000384444287F385454541800087E090218A2
:10030000A4A49C787F0804047800447D4000204029
:10031000403D007F1028440000417F40007C04786D
:1003200004787C080404783844444438FC182424B5
:100330001818242418FC7C08040408485454542435
:1003400004043F44243C4040207C1C2040201C3CB2
:100350004030403C44281028444C9090907C4464A9
:10036000544C44000836410000007700000041363C
:10037000080002010204023C2623263C1EA1A161C2
:10038000123A4040207A38545455592155557941F4
:100390002254547842215554784020545579400CC9
:1003A0001E527212395555555939545454593955AC
:1003B0005454580000457C410002457D42000145EF
:1003C0007C407D1211127DF0282528F07C54554583
:1003D000002054547C547C0A097F493249494932EF
:1003E0003A4444443A324A4848303A4141217A3A00
:1003F00042402078009DA0A07D3D4242423D3D40CC
:1004000040403D3C24FF2424487E4943662B2FFC7A
:100410002F2BFF0929F620C0887E09032054547928
:10042000410000447D413048484A32384040227AF9
:10043000007A0A0A727D0D19317D2629292F282676
:100440002929292630484D4020380808080808087E
:100450000808382F10C8ACBA2F102834FA00007BD7
:10046000000008142A142222142A140855005500EA
:1004700055AA55AA55AAFF55FF55FF000000FF00D9
:10048000101010FF00141414FF001010FF00FF10D4
:1004900010F010F0141414FC001414F700FF000006
:1004A000FF00FF1414F404FC141417101F10101F85
:1004B000101F1414141F00101010F0000000001F73
:1004C000101010101F10101010F010000000FF107E
:1004D0001010101010101010FF10000000FF14007A
:1004E00000FF00FF00001F10170000FC04F41414AC
:1004F0001710171414F404F40000FF00F714141478
:1005000014141414F700F7141414171410101F10F7
:100510001F141414F4141010F010F000001F101F1A
:100520000000001F14000000FC140000F010F01088
:1005300010FF10FF141414FF141010101F000000FF
:1005400000F010FFFFFFFFFFF0F0F0F0F0FFFFFF03
:100550000000000000FFFF0F0F0F0F0F384444385A
:1005600044FC4A4A4A347E02020606027E027E02A9
:1005700063554941633844443C04407E201E2006B4
:10058000027E020299A5E7A5991C2A492A1C4C72F1
:1005900001724C304A4D4D303048784830BC625A78
:1005A000463D3E494949007E0101017E2A2A2A2A08
:1005B0002A44445F444440514A444040444A5140E4
:1005C0000000FF0103E080FF000008086B6B0836A5
:1005D00012362436060F090F060000181800000016
:1005E0001010003040FF0101001F01011E00191D05
:1005F0001712003C3C3C3C000000000000000000E2
:10060000250028002B0000000000240027002A00FD
:1006100004040404040404040202020202020303A8
:1006200003030303010204081020408001020408B0
:10063000102001020408102003FC0000000003FC4D
:100640000003FC0000000003FC0003FC0003FC00AE
:1006500000000003FC0003FC0007FE003FFFC01F7A
:10066000FF800FFF0007FE0003FC0001F80000F010
:100670000000600000600000F00001F80003FC00D2
:1006800007FE000FFF001FFF803FFFC007FE0003B3
:10069000FC0003FC0000000003FC0003FC0003FC62
:1006A0000000000003FC0003FC0000000003FC004D
:1006B000000000000000007FF87FF80000400840C4
:1006C00008000040084008000040084008000040C2
:1006D0000840080000410842080000418846080020
:1006E0000041C84E0800004FE85FC800004FE85FB7
:1006F000C8000041C84E080000418846080000417B
:100700000842080000400840080000400840080077
:10071000004008400800004008400800007FF87FC3
:10072000F80000000000000000000000000001FFD1
:10073000E01FFE0001002010020001002010020056
:100740000100201002000100201002000C00201007
:1007500000001800201000C03800201000607FF852
:1007600020107FF03FF820107FF818002010007054
:100770000C00201000600000201000C001002010BC
:100780000200010020100200010020100200010000
:100790002010020001FFE01FFE000000000000002A
:1007A0007A1E741E11241FBECFEFD8E0DEBFCDBF6E
:1007B00026E0A4E9B5E001C01D92A43FB207E1F72D
:1007C00015E0A0E0B1E0E0E3F3E402C005900D9293
:1007D000A439B107D9F713E0C1EDD3E004C02197E4
:1007E000FE010E94701FC03DD107C9F70E94811809
:1007F0000C948B210C940000FC01538D448D252F0B
:1008000030E0842F90E0821B930B541710F0CF96AA
:10081000089501970895FC01918D828D981761F0DC
:10082000828DDF01A80FB11D5D968C91928D9F5F27
:100830009F73928F90E008958FEF9FEF0895FC01D2
:10084000918D828D981731F0828DE80FF11D858D85
:1008500090E008958FEF9FEF0895FC01918D228D18
:10086000892F90E0805C9F4F821B91098F7399279D
:10087000089582E396E00E942D0421E0892B09F47B
:1008800020E0822F0895FC01848DDF01A80FB11DA7
:10089000A35ABF4F2C91848D90E001968F739927B6
:1008A000848FA689B7892C93A089B1898C918064A3
:1008B0008C93938D848D981306C00288F389E02D64
:1008C00080818F7D80830895EF92FF920F931F9315
:1008D000CF93DF93EC0181E0888F9B8D8C8D9813F3
:1008E00005C0E889F989808185FD24C0F62E0B8D2D
:1008F00010E00F5F1F4F0F731127E02E8C8DE81251
:100900000CC00FB607FCFACFE889F989808185FF12
:10091000F5CFCE010E944304F1CF8B8DFE01E80F8D
:10092000F11DE35AFF4FF0820B8FEA89FB8980812A
:10093000806207C0EE89FF896083E889F989808138
:100940008064808381E090E0DF91CF911F910F91CF
:10095000FF90EF900895CF93DF93EC01888D88236B
:10096000C9F0EA89FB89808185FD05C0A889B9891C
:100970008C9186FD0FC00FB607FCF5CF808185FFF7
:10098000F2CFA889B9898C9185FFEDCFCE010E9465
:100990004304E7CFDF91CF91089580E090E0892B69
:1009A00029F00E94390481110C94000008953FB78A
:1009B000F89480919C0590919D05A0919E05B09121
:1009C0009F0526B5A89B05C02F3F19F00196A11DD4
:1009D000B11D3FBFBA2FA92F982F8827820F911DD5
:1009E000A11DB11DBC01CD0142E0660F771F881F1C
:1009F000991F4A95D1F708950F931F93CF93DF93D3
:100A0000DC0155968C915597823071F0833009F155
:100A1000813009F08CC01496ED91FC911597E41B80
:100A2000F50BE21BF30B20C01496ED91FC9115978A
:100A3000CF01861B970BBC01615071091696ED9191
:100A4000FC911797CF01841B950BAC01421B530BF4
:100A50006EC01696ED91FC911797CF01861B970BF0
:100A6000BC0161507109FA0177FD1BC116968D9189
:100A70009C911797681779070CF013C1F7FF04C012
:100A80002E0F3F1FE0E0F0E014968D919C9115979A
:100A9000AF01420F531F841795071CF49C012E1BB6
:100AA0003F0B121613060CF0FCC0CB0177FD079626
:100AB00043E0959587954A95E1F79695982F882775
:100AC00097958795E80FF91FE050FF4F67707727DC
:100AD00081E090E001C0880F6A95EAF7482F013065
:100AE000110541F088F00230110509F0DAC02E0F2F
:100AF0003F1F15C02E0F3F1FE217F30709F4D1C0A7
:100B00008081842B8193F8CF80952E0F3F1FE217B1
:100B1000F30709F4C6C0908198239193F8CFE217A8
:100B2000F30709F4BEC0808184278193F8CF77FD55
:100B3000B8C014968D919C911597681779070CF0A1
:100B4000B0C057FF04C0240F351F40E050E0169698
:100B50008D919C911797FA01E20FF31F8E179F0753
:100B60001CF49C01241B350B121613060CF099C0C3
:100B7000A22F842F86958695869590E8899F600D93
:100B8000711D1124FB01E050FF4F4770A9F198E05F
:100B9000941B492F50E0EA01C65CDA4F888129177F
:100BA00090F4421B51092FEF30E002C03595279594
:100BB0004A95E2F782230130110541F068F00230D6
:100BC000110589F06EC00130110519F42081822BC6
:100BD0000CC00130110520F480952081822305C0CE
:100BE0000230110531F4208182278083A91708F48F
:100BF00058C0A91BE058FF4FA83048F1023011053A
:100C000059F4EF018A2F988190959883C058DF4F4F
:100C100088508830C0F730C081E00130110509F0FC
:100C200080E08195EF019A2F8883C058DF4F98505C
:100C30009830D0F788EF8A0F86958695869590E84C
:100C4000899FE00DF11D1124E058FF4FA770AA23E2
:100C500041F1B0E0AE5CBA4F8C910130110529F042
:100C600038F002301105D1F01CC09081892B18C0DA
:100C700080959081892314C088EF8A0F8695869588
:100C8000869590E8899FE00DF11D1124E058FF4FF3
:100C9000A77039F0B0E0AE5CBA4F8C919081892793
:100CA0008083DF91CF911F910F9108950F931F9330
:100CB000CF93DF93DC01FB0155968C9155978230E1
:100CC00081F0833019F1813051F514968D919C910A
:100CD0001597BC01641B750BAB0141505109BF0155
:100CE00081C014966D917C911597CB018E1B9F0B43
:100CF000FC0116968D919C911797BC01641B750B96
:100D0000AB0141505109E21BF30B09C016966D91DE
:100D10007C9117976E1B7F0B621B730B63C057FD93
:100D20001CC116968D919C911797481759070CF086
:100D300014C1F7FF04C02E0F3F1FE0E0F0E014964F
:100D40008D919C911597BF01620F731F86179707AE
:100D50001CF49C012E1B3F0B121613060CF0FDC059
:100D6000CA0157FD079663E0959587956A95E1F767
:100D70009695982F882797958795E80FF91FE0504B
:100D8000FF4F4770552781E090E001C0880F4A95DA
:100D9000EAF7482F0130110541F088F002301105C3
:100DA00009F0DBC02E0F3F1F15C02E0F3F1FE217AB
:100DB000F30709F4D2C08081842B8193F8CF80950A
:100DC0002E0F3F1FE217F30709F4C7C09081982345
:100DD0009193F8CFE217F30709F4BFC0808184270D
:100DE0008193F8CF57FDB9C014968D919C911597BA
:100DF000481759070CF0B1C077FF04C0260F371F02
:100E000060E070E016968D919C911797FB01E20FC0
:100E1000F31F8E179F071CF49C01261B370B12161D
:100E200013060CF09AC0A22F862F8695869586957C
:100E300090E8899F400D511D1124FA01E050FF4FA9
:100E40006770A9F198E0961B492F50E0EA01C65C53
:100E5000DA4F8881291790F4421B51092FEF30E0B7
:100E600002C0359527954A95E2F782230130110596
:100E700041F068F00230110589F06FC001301105B2
:100E800019F42081822B0CC00130110520F48095CB
:100E90002081822305C00230110531F42081822790
:100EA0008083A91708F459C0A91BE058FF4FA83048
:100EB00048F10230110559F4EF018A2F988190957D
:100EC0009883C058DF4F88508830C0F731C081E028
:100ED0000130110509F080E08195EF019A2F888398
:100EE000C058DF4F98509830D0F788EF8A0F86951A
:100EF0008695869560E8869FE00DF11D1124E058E7
:100F0000FF4FA770AA2349F1B0E0AE5CBA4F8C91B5
:100F10000130110529F038F002301105D9F01DC05B
:100F20009081892B03C0809590818923808315C08F
:100F300088EF8A0F86958695869570E8879FE00DE5
:100F4000F11D1124E058FF4FA77039F0B0E0AE5CFE
:100F5000BA4F8C9190818927E9CFDF91CF911F9172
:100F60000F910895FC0181A1882339F06EBD000026
:100F70000DB407FEFDCF8EB5089528E030E090E86F
:100F8000A4A1B5A14C9183A5809584238C93A2A1A3
:100F9000B3A182A5492F462319F04C91842B03C09D
:100FA0004C91809584238C93A4A1B5A14C9183A5E9
:100FB000842B8C9396952150310911F70895FC01EB
:100FC00077FD9AC080859185681779070CF094C0E9
:100FD00057FD92C082859385481759070CF08CC045
:100FE0008589823009F07CC084819581DC01A61B53
:100FF000B70BBD016150710986819781FC01E41B2B
:10100000F50BAF01415051090AC0813041F4848190
:101010009581841B950BAB01BC0161507109213096
:10102000310529F008F122303105E1F10895FA0186
:1010300057FD3796A3E0F595E795AA95E1F7F69564
:10104000FE2FEE27F795E7956E0F7F1FFB01E0500F
:10105000FF4F4770552781E090E001C0880F4A9507
:10106000EAF79081892B3AC0FA0157FD379623E0C1
:10107000F595E7952A95E1F7F695FE2FEE27F7957A
:10108000E7956E0F7F1FFB01E050FF4F477055271C
:1010900081E090E001C0880F4A95EAF78095908141
:1010A00089231CC0FA0157FD379683E0F595E79533
:1010B0008A95E1F7F695FE2FEE27F795E7956E0FE7
:1010C0007F1FFB01E050FF4F4770552781E090E004
:1010D00001C0880F4A95EAF7908189278083089597
:1010E000833009F092CF86819781861B970BBA01D6
:1010F000AC014150510993CF08950895FC016370EC
:10110000658B8481958126813781613039F0633028
:1011100029F0918780873387228708953187208738
:101120009387828708950E946D21AF92BF92CF92DC
:10113000EF92FF920F931F93CF93DF93EC01262F33
:10114000888D998D009709F040C06A3059F41D864A
:101150001C862C898E859F8538E0239F800D911DEC
:10116000112441C06D3009F4AAC08E898823C1F0D2
:101170003C898C859D8546E0349F800D911D11240E
:1011800048855985481759075CF41D861C868E854D
:101190009F8548E0349F800D911D11249F878E8785
:1011A000EA88FB88088919894E855F856C857D856D
:1011B000CC88CE010E94BC0E2C898C859D8536E0A2
:1011C000239F800D911D112442C06A3079F41D8641
:1011D0001C862C89FC013696E4918E859F852E9F76
:1011E000800D911D11249F878E8769C06D3009F491
:1011F00066C0FC0134963491631708F460C03196E0
:10120000E491E61708F45BC0FC013296A590B49017
:10121000462F50E0431B510937E0349FB001359F02
:10122000700D1124A60EB71EF50132963491319639
:10123000E491332311F0E1110DC0F5013496E491EE
:101240002C898C859D85E29F800D911D11249D87A1
:101250008C8735C0F501359644915E89552311F18F
:101260006C89E32FF0E0E40FF11D47FDFA956E9FC6
:10127000D0016F9FB00D11244C855D854A0F5B1F17
:10128000E885F985E417F5076CF41D861C86FC01DA
:101290003696E4918E859F856E9F800D911D112459
:1012A0009F878E87EA88FB88088919894E855F8524
:1012B0006C857D85CC88CE010E94BC0EBECF81E0BE
:1012C00090E0DF91CF911F910F91FF90EF90CF9021
:1012D000BF90AF9008951F920F920FB60F921124F6
:1012E0002F933F934F935F936F937F938F939F932E
:1012F000AF93BF93EF93FF9382E396E00E94430482
:10130000FF91EF91BF91AF919F918F917F916F91DD
:101310005F914F913F912F910F900FBE0F901F90B3
:1013200018951F920F920FB60F9211242F938F933F
:101330009F93EF93FF93E0914206F09143068081E3
:10134000E0914806F091490682FD12C0908180919B
:101350004B068F5F8F7320914C06821751F0E091FE
:101360004B06F0E0EE5CF94F958F80934B0601C081
:101370008081FF91EF919F918F912F910F900FBEE0
:101380000F901F90189590E0FC01E851FF4F3491A9
:10139000FC01EC5DF94F2491FC01E05FF94FE49111
:1013A000EE2309F43BC0332339F1333091F038F4A4
:1013B0003130A9F0323001F584B58F7D12C037305D
:1013C00091F03830A1F03430B9F4809180008F7DF5
:1013D00003C0809180008F77809380000DC084B51A
:1013E0008F7784BD09C08091B0008F7703C0809152
:1013F000B0008F7D8093B000F0E0EE0FFF1FE4504F
:10140000FA4FA591B4918FB7F894EC91611103C094
:1014100020952E2301C02E2B2C938FBF08958F92E1
:101420009F92AF92BF92CF92DF92EF92FF926B01A9
:101430007C010E94D7044B015C01C114D104E1047A
:10144000F104F1F00E94D704DC01CB01881999095D
:10145000AA09BB09883E9340A105B10570F321E0BC
:10146000C21AD108E108F10888EE880E83E0981EC0
:10147000A11CB11CC114D104E104F10419F7DDCFA2
:10148000FF90EF90DF90CF90BF90AF909F908F90A4
:1014900008951F920F920FB60F9211242F933F932E
:1014A0008F939F93AF93BF938091980590919905E7
:1014B000A0919A05B0919B053091970523E0230FE9
:1014C0002D3720F40196A11DB11D05C026E8230F7C
:1014D0000296A11DB11D20939705809398059093C6
:1014E0009905A0939A05B0939B0580919C059091D6
:1014F0009D05A0919E05B0919F050196A11DB11D6E
:1015000080939C0590939D05A0939E05B0939F05A5
:10151000BF91AF919F918F913F912F910F900FBEEF
:101520000F901F9018951F93CF93DF93EC01162F08
:101530008C8D8F3F09F1EEA1FFA190818CA5892BA5
:101540008083E8A5F9A590818DA580958923808366
:10155000EEA1FFA190818CA5809589238083CE0187
:101560000E94B207EEA1FFA190818CA5892B8083F8
:10157000DF91CF911F9108958A8D91E090930E068F
:101580008093300610920F061092310660E08FECC7
:1015900096E00E94890E612F8FEC96E00E94890EE2
:1015A000DF91CF911F910C94B813CF92DF92EF92FD
:1015B000FF920F931F93CF93DF93EC0161E20E94A0
:1015C000930A60E0CE010E94930A6FE7CE010E9469
:1015D000930A62E2CE010E94930A60E0CE010E946B
:1015E000930A67E0CE010E94930A8C8D8F3F31F100
:1015F000EEA1FFA190818CA5892B8083E8A5F9A598
:1016000090818DA5892B8083EEA1FFA190818CA56F
:1016100080958923808300E011E0F80161918F01BA
:10162000CE010E94B207F5E000301F07B1F7EEA12E
:10163000FFA190818CA5892B808332C0D090B80007
:101640008CE08093B80000E011E0CC24C3948A8D34
:10165000C0920E068093300610920F06109231064B
:1016600060E48FEC96E00E94890EE12CF12CF801E9
:10167000EE0DFF1D60818FEC96E00E94890E8FEFCA
:10168000E81AF80AE0E1EE16F10489F70E94B813AF
:10169000005F1F4FF5E000301F07C9F6D092B80079
:1016A000DF91CF911F910F91FF90EF90DF90CF903E
:1016B00008956F927F928F929F92AF92BF92CF9236
:1016C000DF92EF92FF920F931F93CF93DF93EC0182
:1016D0004B015A0169013801E881F9810284F385DF
:1016E000E02D0995E881F9810288F389E02D8701D1
:1016F0009601A501B401CE010995E881F981A50102
:10170000460D571D415051090288F389E02D96017D
:10171000B401CE010995E881F9810088F189E02DB5
:101720009301A501B401CE010995E881F981C80CA6
:10173000D91CB601615071090088F189E02D93012F
:10174000A501CE010995E881F9810688F789E02D88
:10175000CE01DF91CF911F910F91FF90EF90DF901D
:10176000CF90BF90AF909F908F907F906F90099493
:10177000CF92DF92EF92FF920F931F93CF93DF935D
:1017800000D000D000D0CDB7DEB76C01DC01ED9108
:10179000FC916217730789F4041715072CF4942F32
:1017A000852FA801092F182F041B150B98012F5FF7
:1017B0003F4F048CF58DE02D12C04017510709F5FD
:1017C000261737072CF4962F872FB901292F382F8A
:1017D000261B370B2F5F3F4F068CF78DE02D8701BF
:1017E000C601099526960FB6F894DEBF0FBECDBF91
:1017F000DF91CF911F910F91FF90EF90DF90CF90ED
:1018000008950284F385E02D2D833E834B835C8312
:1018100069837A830995D601ED91FC910488F58955
:10182000E02D2D813E814B815C8169817A81C601E9
:101830000995D601ED91FC910688F789E02DC60146
:1018400026960FB6F894DEBF0FBECDBFDF91CF91C5
:101850001F910F91FF90EF90DF90CF900994EF923E
:10186000FF920F931F93DC01ED91FC9111971A9653
:101870000D911C911B9718962D913C91199700A0E2
:10188000F1A1E02D7B0140E050E060E070E00995BF
:101890001F910F91FF90EF9008954F925F926F927A
:1018A0007F928F929F92AF92BF92CF92DF92EF92F0
:1018B000FF920F931F93CF93DF9300D0CDB7DEB786
:1018C0006C015A0139014801DC01ED91FC9102845F
:1018D000F385E02D69837A8309956981462E7A81A3
:1018E000572E640C751CD601ED91FC9146145704DB
:1018F0006CF40088F189E02D87019401A501B20103
:10190000C6010995BFEF4B1A5B0AEDCF0688F78930
:10191000E02DC6010F900F90DF91CF911F910F9195
:10192000FF90EF90DF90CF90BF90AF909F908F90FF
:101930007F906F905F904F900994AF92BF92CF923B
:10194000DF92EF92FF920F931F93CF93DF9300D01C
:1019500000D0CDB7DEB75C016901DC01ED91FC91EF
:101960000284F385E02D4B835C8369837A83099538
:10197000D501ED91FC9169817A819B012C0D3D1D72
:10198000215031090488F589E02D78014B815C8173
:101990008A01C5010995D501ED91FC910688F78969
:1019A000E02DC5010F900F900F900F90DF91CF9118
:1019B0001F910F91FF90EF90DF90CF90BF90AF906D
:1019C0000994AF92BF92CF92DF92EF92FF920F9362
:1019D0001F93CF93DF9300D000D0CDB7DEB75C016B
:1019E0006901DC01ED91FC910284F385E02D4B83CC
:1019F0005C8369837A830995D501ED91FC914B81D4
:101A00005C81C40ED51EB1E0CB1AD1080488F589DB
:101A1000E02D7801860169817A819B01C5010995D4
:101A2000D501ED91FC910688F789E02DC5010F9055
:101A30000F900F900F90DF91CF911F910F91FF901A
:101A4000EF90DF90CF90BF90AF9009940895EF9200
:101A5000FF920F931F93DC01ED91FC9100A0F1A187
:101A6000E02D09951F910F91FF90EF9008950F932E
:101A70001F93DC01ED91FC91068CF78DE02D09950B
:101A80001F910F9108950F931F93DC01ED91FC912D
:101A9000048CF58DE02D09951F910F910895DC01BF
:101AA000ED91FC910084F185E02D099408952F9229
:101AB0003F924F925F926F927F928F929F92AF92DE
:101AC000BF92CF92DF92EF92FF920F931F93CF932B
:101AD000DF9300D01F92CDB7DEB74C017B836A83C2
:101AE0006A01590117019801241B350B37FF03C008
:101AF000319521953109C5014A815B81841B950B84
:101B000097FF03C091958195910951E05983821700
:101B1000930714F019820BC09A2D8B2D5801092FB1
:101B2000182F9A818B81DB82CA82C92ED82E8A8196
:101B30009B81A816B9065CF49C2D8D2D6801092F98
:101B4000182F9A818B81BB82AA82A92EB82E2501DB
:101B5000AA81BB814A1A5B0A38016C187D0877FE9E
:101B600003C0719461947108720157FE03C0BFEF06
:101B7000EB1AFB0AF594E794C016D1061CF00FEFA0
:101B80001FEF1FC001E010E01CC0D401ED91FC91DB
:101B9000B9810484F585E02D9101BB23C1F04A8110
:101BA0005B81B601C4010995E618F708F7FE04C089
:101BB000C00ED11EE40CF51CEA81FB813196FB833B
:101BC000EA834A815B81A416B506FCF604C0A6012F
:101BD0006A817B81E7CF0F900F900F90DF91CF91BB
:101BE0001F910F91FF90EF90DF90CF90BF90AF903B
:101BF0009F908F907F906F905F904F903F902F902D
:101C0000089585ED8093BC008091BC0084FDFCCFDD
:101C100010920D0608954091C205262F30E0240F42
:101C2000311D21323105DCF420910D062430C9F438
:101C3000FC0180E090E0861758F43091C2052191B4
:101C4000DC01A056BA4FA30FB11D2C930196F3CF20
:101C50008091C205680F6093C20580E0089581E01D
:101C6000089582E00895089581E090E0309195050F
:101C700020919405321710F480E090E091958195C1
:101C8000910908958091950590919405891730F4F4
:101C90008F5F8093950580E090E008958FEF9FEF30
:101CA00008958091940590E020919505821B9109FB
:101CB0000895CF92DF92EF92FF920F931F93CF93ED
:101CC000DF937C01262F972F8A0180910E068823AF
:101CD00091F0C62FD72F6E01C40ED51ECC15DD0591
:101CE00071F06991D701ED91FC910190F081E02DA7
:101CF000C7010995F3CF642F822F0E940B0EC801F4
:101D0000DF91CF911F910F91FF90EF90DF90CF90D7
:101D10000895CF93DF931F92CDB7DEB769832091EB
:101D20000E062223D1F020913106203240F021E02E
:101D300030E0FC013383228380E090E015C0809185
:101D40000F06E82FF0E0E05FF94F998190838F5FF5
:101D500080930F068093310605C061E0CE010196A5
:101D60000E940B0E81E090E00F90DF91CF910895DB
:101D7000089580E090E008952F923F924F925F92F5
:101D80006F927F928F929F92AF92BF92CF92DF928B
:101D9000EF92FF920F931F93CF93DF93CDB7DEB7F0
:101DA0006C970FB6F894DEBF0FBECDBF9C8F8B8FA4
:101DB0005B011A011F830E833701C982DC0158962B
:101DC0004D915C9159974115510509F0E5C0189660
:101DD0008D919C911997681779070CF0CAC11A96D2
:101DE0008D919C911B97281639060CF0C2C18C2C42
:101DF000912CFB0136E0C39EE00DF11D1124FB8701
:101E0000EA871E161F060CF0B4C1C40133E0880F28
:101E1000991F3A95E1F79D878C87820D931D1816BF
:101E200019060CF0A6C157968C91811103C0203B76
:101E300008F02F5FAB8DBC8DED91FC911197028462
:101E4000F385E02DCD012A8F09952A8DB5E02B9FD2
:101E500090011124F5013596FF87EE87BB82AA8297
:101E60002501A9014A195B09598B488BC1010896C4
:101E70009B8B8A8BE889F989E40DF51DE450FF4FAF
:101E80009491988761013D822C82A885A0FF13C0A0
:101E9000AB8DBC8DED91FC91B981B13031F40484EE
:101EA000F585E02D2E813F8116C00684F785E02D53
:101EB000EE80FF801AC0EE81FF816E167F06F1F082
:101EC000AB8DBC8DED91FC91B981B13051F404849E
:101ED000F585E02D9301A601B2018B8D9C8D0995AE
:101EE0000DC00684F785E02D7301840194014C81B7
:101EF0005D816A817B818B8D9C8D0995E885E69556
:101F0000E887FFEFCF1ADF0A2C813D81280D391DAC
:101F10003D832C834A895B89C416D50609F0B5CF69
:101F20005FEF451A550A8A819B81880D991D9B8315
:101F30008A83AE85BF854A165B0609F09BCFEE818A
:101F4000FF816E167F0609F4F2C0EB8DFC8DA08137
:101F5000B181F981F13079F4B5016B5F7F4F509613
:101F6000ED91FC915197830128E030E0A1018B8D28
:101F70009C8D0995DCC06A857B85681979091E9658
:101F8000ED91FC911F9773010C851D859401A101B2
:101F90008B8D9C8D0995CBC0FA0134969491329724
:101FA00065917491291BCB01B7E02B9F800D911D8A
:101FB0001124FA01259134913B8B2A8BFC01459128
:101FC00054915B834A83FC013296C49031965491BC
:101FD0005E87329614913196D4908981823058F080
:101FE000612E012E000C7708AD2D0D2C000CBB0BC3
:101FF000B987A88704C019861886612C712CAB8D0F
:10200000BC8DED91FC9111970284F385E02DCD01FB
:102010000995B9818B2E912C689CC001699C900D0B
:10202000789C900D1124FC01EA0DFB1DFD87EC87C7
:102030001C82712C612CE12F110FFF0B95012E0FCB
:102040003F1F3B872A87AC0CB11CA5014E0F5F1FB9
:102050005F8B4E8BC1018D0D911DD7FC9A95998F89
:10206000888F4E85641608F062C0862D90E0488502
:102070005985480F591F489D9001499D300D589D25
:10208000300D1124D901A20DB31DB98BA88BAA84E0
:10209000BB844C845D84DC80BA85DB1AE88DF98DC5
:1020A000E80FF91FFD8BEC8B8D2D8A0D2E893F8952
:1020B000A216B306B9F1877061F48A819B810196FB
:1020C000EA89FB89AA81BB81EA0FFB1F74909B837D
:1020D0008A8377FE20C0AB8DBC8DED91FC91B981D8
:1020E000B13061F40484F585E02D2E813F814C8967
:1020F0005D89B5018B8D9C8D09950DC00684F78592
:10210000E02DEE80FF808401940148895989B20155
:102110008B8D9C8D0995770CEFEFAE1ABE0A480C9B
:10212000591CC2CF3C813C0D3C8363949ACFAB8D4C
:10213000BC8DED91FC9111970688F789E02DCD01BA
:102140006C960FB6F894DEBF0FBECDBFDF91CF9176
:102150001F910F91FF90EF90DF90CF90BF90AF90C5
:102160009F908F907F906F905F904F903F902F90B7
:1021700009946C960FB6F894DEBF0FBECDBFDF9109
:10218000CF911F910F91FF90EF90DF90CF90BF9074
:10219000AF909F908F907F906F905F904F903F9007
:1021A0002F9008952F923F924F925F926F927F925D
:1021B0008F929F92AF92BF92CF92DF92EF92FF9257
:1021C0000F931F93CF93DF93CDB7DEB728970FB64A
:1021D000F894DEBF0FBECDBF5C013B014A013887DA
:1021E0002F83FC82EB8281E090E02C01421A530A9B
:1021F000C9019195819591099C01220F331F3A8362
:102200002983170133E0230E311CEE24E394F12CD3
:10221000802F81708D8302700E83C7010197EF813B
:10222000F8858E179F070CF078C057FC0CC0AF8163
:10223000B8851197B887AF83E981FA813296FA831E
:10224000E9834E0E5F1EC701880F991F0196480E45
:10225000591EFD81FF2359F1D501ED91FC912F818C
:102260003885220F331F2F5F3F4F8B819C81280FB2
:10227000391F0088F189E02D8601A401AF81B8855E
:102280004A1B5B0BB701660D771DC5010995D5018A
:10229000ED91FC910088F189E02D9101A4014E1986
:1022A0005F096F817885660D771DC5010995BE812F
:1022B000BB2361F1D501ED91FC912F813885220F6F
:1022C000331F2F5F3F4F8B819C81280F391F008860
:1022D000F189E02D8601A401AF81B8854A1B5B0B13
:1022E000B3016E197F09C5010995D501ED91FC91E6
:1022F0000088F189E02D9101A4014E195F09B30115
:102300008F819885681B790BC50109959FEFE91AA4
:10231000F90AA2E02A0E311C80CF28960FB6F89455
:10232000DEBF0FBECDBFDF91CF911F910F91FF9008
:10233000EF90DF90CF90BF90AF909F908F907F9065
:102340006F905F904F903F902F9008956F927F9283
:102350008F929F92AF92BF92CF92DF92EF92FF92B5
:102360000F931F93CF93DF93EC014B013A01590177
:102370006801E881F9810284F385E02D0995E881FF
:10238000F9819501220F331F2F5F3F4FA3014A1997
:102390005B090088F189E02DB401CE010995E12C9B
:1023A000F12C03E09501A301B401CE010E94D210EB
:1023B000E881F9810688F789E02DCE01DF91CF9180
:1023C0001F910F91FF90EF90DF90CF90BF90AF9053
:1023D0009F908F907F906F9009941F920F920FB6ED
:1023E0000F9211242F933F934F935F936F937F939B
:1023F0008F939F93AF93BF93EF93FF938091B90017
:10240000887F803609F49CC068F5883209F45BC087
:1024100090F4803109F454C038F4882309F4F6C0EC
:10242000883009F44DC0F6C0883109F44CC08032C0
:1024300009F45DC0EFC0803409F468C048F480330B
:1024400009F455C0883309F0E5C080930B06D8C065
:10245000803509F44FC0883509F45DC0883409F02F
:10246000D9C0D6C0883909F4C7C0A8F4883709F4A0
:1024700067C038F4883609F463C0803709F460C057
:10248000C9C0883809F4B8C0803909F45FC0803801
:1024900009F0C0C05BC0803B09F486C038F4803AC4
:1024A00009F466C0883A09F47FC0B4C0803C09F4DE
:1024B000A7C0883C09F4A4C0883B09F48AC0AAC01C
:1024C0008091E80510C090910A068091090698173E
:1024D00070F5E0910A0681E08E0F80930A06F0E025
:1024E000E751FA4F80818093BB0085EC86C08093D2
:1024F0000B068EC0E0910A0681E08E0F80930A06DB
:102500008091BB00F0E0E751FA4F808390910A067A
:10251000809109066EC0E0910A0681E08E0F8093DB
:102520000A068091BB00F0E0E751FA4F808380916A
:102530000C0681116DC081E08093E70584EA61C0DB
:1025400083E080930D061092E605CFCF8091E605DB
:10255000803208F051C0E091E60581E08E0F809353
:10256000E6058091BB00F0E0EA53FA4F8083BDCFCF
:1025700085EC8093BC0010920D068091E6058032B8
:1025800030F4E091E605F0E0EA53FA4F10826091F2
:10259000E60570E0E091C405F091C50586EC95E094
:1025A00009951092E60536C084E080930D061092DE
:1025B000C3051092C205E091C005F091C1050995CF
:1025C0008091C205811105C081E08093C2051092FF
:1025D000A005E091C30581E08E0F8093C305F0E074
:1025E000E056FA4F80818093BB009091C3058091A3
:1025F000C205981708F479CF85E88093BC000AC01B
:1026000085EC8093BC0010920D0604C010920B065E
:102610000E94010EFF91EF91BF91AF919F918F9119
:102620007F916F915F914F913F912F910F900FBECE
:102630000F901F9018953F924F925F926F927F92EA
:102640008F929F92AF92BF92CF92DF92EF92FF92C2
:102650000F931F93CF93DF93CDB7DEB728970FB6B5
:10266000F894DEBF0FBECDBF6C017E836D832A015F
:102670003901DC01ED91FC910284F385E02D09958F
:10268000C801079697FD0796FC0193E0F595E7953D
:102690009A95E1F7FA83E983812C912CA12CB12C36
:1026A000312CC501840D951D9C838B83AE14BF0412
:1026B0000CF03FC018861F82EF81F885E017F10704
:1026C00084F58F81988587709927892B11F0330CB9
:1026D0000EC0EF81F885F7FD379683E0F595E79515
:1026E0008A95E1F7E80DF91DE60DF71D349037FEE8
:1026F00012C0D601ED91FC910484F585E02D21E016
:1027000030E04B815C816D817E818F819885680F7F
:10271000791FC6010995AF81B8851196B887AF8337
:10272000CBCFFFEFAF1ABF0A29813A81820E931EE9
:10273000B8CFD601ED91FC910688F789E02DC6014E
:1027400028960FB6F894DEBF0FBECDBFDF91CF91B4
:102750001F910F91FF90EF90DF90CF90BF90AF90BF
:102760009F908F907F906F905F904F903F900994D3
:102770002091310690913006213208F04AC08091B4
:102780000D068111FCCF32E030930D0631E030931D
:102790000C063FEF30930B0610920A0620930906B1
:1027A000A0E1B6E049EE55E0FA013E2F341B3217A6
:1027B00018F43D913193F9CF1092E8052091E80586
:1027C000990F922B9093E8059091E705913061F471
:1027D0001092E7059091E8059093BB009091BC00A2
:1027E00093FDF8CF95EC01C095EE9093BC009091CD
:1027F0000D069230E1F390910B069F3F79F08091A6
:102800000B06803241F080910B06803331F084E07A
:1028100005C081E003C082E001C083E010920F0692
:102820001092310610920E060895EF92FF920F93C8
:102830001F938091DD069091DE06DC01ED91FC9105
:1028400000A0F1A1E02DE12CF12C04E110E02EE23A
:1028500030E046E150E062E270E009952091EF0639
:102860008091DD069091DE0634E1E32EF12C0EE23C
:1028700010E0222319F028E237E002C020EB36E016
:1028800046E150E062E270E00E941B138091DD0699
:102890009091DE061F910F91FF90EF900C94D50A56
:1028A000EF92FF920F931F938091DD069091DE06C9
:1028B000DC01ED91FC9100A0F1A1E02DE12CF12CC7
:1028C00004E110E024E130E040E250E06AE070E032
:1028D00009952091ED063091EE068091DD069091EC
:1028E000DE061216130634F434E1E32EF12C24E74D
:1028F00036E009C0232B69F024E1E22EF12C04E13B
:1029000010E028E336E040E250E06AE070E00E9428
:102910001B138091DD069091DE061F910F91FF90B1
:10292000EF900C94D50A0F931F93CF93DF93CBEDC9
:10293000D6E00E8510E022E030E04BE350E06BE1A2
:1029400070E08A819B810E94A6118A819B81DF9120
:10295000CF911F910F910C94D50A0F931F93CF9392
:10296000DF93CBEDD6E00E8510E022E030E04AE1C7
:1029700050E06BE170E08A819B810E94A6118A8100
:102980009B81DF91CF911F910F910C94D50A2F92CB
:102990003F924F925F926F927F928F929F92AF92EF
:1029A000BF92CF92DF92EF92FF920F931F93CF933C
:1029B000DF9300D000D0CDB7DEB79C838B836B0153
:1029C0003A01190158014701DC01ED91FC910284A3
:1029D000F385E02D0995882799278E199F09FC0119
:1029E000EE0FFF1FFA83E98326014E0C5F1CAB81BB
:1029F000BC81ED91FC91119729813A81220D331D03
:102A00000684F785E02DE12CF12CA301B201CD0164
:102A10000995E981FA81AE0EBF1EF1E0AF1AB10847
:102A2000680C791CB601620D731D68197909615033
:102A30007109C12CD12C750101E09401A3018B8196
:102A40009C810E94D21002E09401A301B2018B810B
:102A50009C810E94D210AB81BC81ED91FC911197B9
:102A60000688F789E02DCD010F900F900F900F9001
:102A7000DF91CF911F910F91FF90EF90DF90CF905A
:102A8000BF90AF909F908F907F906F905F904F908E
:102A90003F902F900994EF92FF920F931F93CF9343
:102AA000DF93CBEDD6E083E0E82EF12C06E210E0D8
:102AB00026E030E047E150E063E070E08A819B81EE
:102AC0000E94C7142889398941E2429FC001439F6F
:102AD000900D112464E670E00E94481FAB01475E30
:102AE0005F4F01E010E023E030E066E070E08A81B3
:102AF0009B810E94A6118A819B81DF91CF911F91BA
:102B00000F91FF90EF900C94D50A2F923F924F9225
:102B10005F926F927F928F929F92AF92BF92CF926D
:102B2000DF92EF92FF920F931F93CF93DF9300D02A
:102B300000D0CDB7DEB79C838B836B015A01442450
:102B40004394512CE12CF12C04E010E098EF692E15
:102B500077247A943DEF832E99249A94822F84705F
:102B60008983A22FA270AA83B22FB8702B2E217056
:102B7000322EFFEFEF1AFF0A82E0480E511C840C40
:102B8000951CA981AA2321F1AB81BC81ED91FC9117
:102B900011970484F585E02D21E030E0A501400F78
:102BA000511FB6016E0D7F1DCD010995AB81BC8112
:102BB000ED91FC9111970484F585E02D21E030E042
:102BC000A5014E0D5F1DB601600F711FCD01099566
:102BD000BA81BB2321F1AB81BC81ED91FC911197AE
:102BE0000484F585E02D21E030E0A501401B510B68
:102BF000B6016E0D7F1DCD010995AB81BC81ED91B4
:102C0000FC9111970484F585E02D21E030E0A501C9
:102C10004E195F09B601600F711FCD010995222081
:102C200021F1AB81BC81ED91FC9111970484F58574
:102C3000E02D21E030E0A5014E0D5F1DB601601BC7
:102C4000710BCD010995AB81BC81ED91FC91119780
:102C50000484F585E02D21E030E0A501400F511FEF
:102C6000B6016E197F09CD010995332021F1AB81A1
:102C7000BC81ED91FC9111970484F585E02D21E054
:102C800030E0A5014E195F09B601601B710BCD0143
:102C90000995AB81BC81ED91FC9111970484F58578
:102CA000E02D21E030E0A501401B510BB6016E196B
:102CB0007F09CD010995E016F10654F497FC59CF30
:102CC00001501109E2E06E0E711C860C971C51CF69
:102CD0000F900F900F900F90DF91CF911F910F9158
:102CE000FF90EF90DF90CF90BF90AF909F908F902C
:102CF0007F906F905F904F903F902F900895CF926C
:102D0000DF92EF92FF920F931F93CF93DF938BEDA0
:102D1000C82E86E0D82ED60112968D919C911397DD
:102D2000DC01ED91FC9100A0F1A1E02DE12CF12C52
:102D300009E110E020E830E049E150E060E070E0B7
:102D40000995F601C281D38181E090E09D878C874F
:102D500029E130E03F872E879B8B8A8B998B888B6C
:102D60008C8BE881F981D6011A964D915C911B9765
:102D700016966D917C9117970280F381E02DCE011C
:102D8000099567E775E0CE010E946C18F601828113
:102D90009381DF91CF911F910F91FF90EF90DF9082
:102DA000CF900C94D50ACF93DF93EC018C819D8159
:102DB0002091E5063091E6068217930729F5E88110
:102DC000F9816091E1067091E206309719F0611582
:102DD0007105A9F46115710551F0892B21F1FB01F1
:102DE000208130E088279927821B930B0BC03097F6
:102DF000D1F0892BC1F09081892F90E003C0CF01E1
:102E00000E947B21892B79F0BE0181EE96E00E9421
:102E100055188091DB069091DC06892B21F4DF9117
:102E2000CF910C947F16DF91CF910895CF92DF92CE
:102E3000EF92FF920F931F93CF93DF93CBEDD6E0EA
:102E40008A819B81DC01ED91FC9100A0F1A1E02D34
:102E5000E12CF12C08E010E02AE630E043E350E0FA
:102E60006BE070E00995CA80DB80D601ED91FC91A2
:102E70002C813D814AE6429FC001439F900D112461
:102E800064E670E00E94481F9B0100A0F1A1E02DC4
:102E9000EE24E394F12C43E350E06BE070E0C601D4
:102EA00009958A819B81DF91CF911F910F91FF90AE
:102EB000EF90DF90CF900C94D50A90E0FC01EC5D90
:102EC000F94F2491FC01E05FF94F8491882399F038
:102ED00090E0880F991FFC01EA5FF94FA591B4912A
:102EE000FC01E450FA4F859194918FB7F894EC91DE
:102EF000E22BEC938FBF08959091EF06891751F064
:102F00008093EF068091DB069091DC06019711F427
:102F10000C9415140895CF92DF92EF92FF920F93C5
:102F20001F93CF93DF936C017A018B01C0E0D0E057
:102F3000CE15DF0589F0D8016D918D01D601ED9197
:102F4000FC910190F081E02DC6010995892B11F4C7
:102F50007E0102C02196ECCFC701DF91CF911F9176
:102F60000F91FF90EF90DF90CF9008952091ED06A4
:102F70003091EE068217930761F09093EE068093EE
:102F8000ED068091DB069091DC06019711F40C941C
:102F900050140895CF93DF9324E630E0281B390BBB
:102FA00037FF02C02FEF3FEF2536310514F024E63E
:102FB00030E0E1E2F0E0C901BF010E94481FEC01EE
:102FC0008091EB069091EC06BF010E94481FC81744
:102FD000D90721F03093EC062093EB068091DB06B5
:102FE0009091DC06019721F4DF91CF910C944B1561
:102FF000DF91CF9108950F931F93CF93DF93EC014F
:1030000088819981009729F02A813B81261737070B
:1030100088F48B016F5F7F4F0E94A320009761F0BF
:10302000998388831B830A832C813D81232B11F490
:10303000FC01108281E001C080E0DF91CF911F91FF
:103040000F910895CF93DF93EC01888199810097C8
:1030500011F00E940B20198218821D821C821B8293
:103060001A82DF91CF910895EF92FF920F931F93F1
:10307000CF93DF93EC017B018A01BA010E94FB1719
:10308000811104C0CE010E94221807C01D830C8349
:10309000B701888199810E948421CE01DF91CF916F
:1030A0001F910F91FF90EF900895CF93DF93EC0164
:1030B000FB018617970761F06081718161157105C9
:1030C00029F0448155810E94341802C00E942218C0
:1030D000CE01DF91CF9108956115710579F0FB0163
:1030E00001900020E9F73197AF01461B570BDC0137
:1030F000ED91FC910280F381E02D099480E090E055
:103100000895CF93DF93CDB7DEB76E970FB6F894DF
:10311000DEBF0FBECDBF789484B5826084BD84B518
:10312000816084BD85B5826085BD85B5816085BDC2
:1031300080916E00816080936E001092810080917A
:103140008100826080938100809181008160809302
:10315000810040E8E42EF12C809180008160809312
:1031600080008091B10084608093B1008091B000B4
:1031700081608093B00080917A00846080937A00AF
:1031800080917A00826080937A0080917A008160D9
:1031900080937A0080917A00806880937A00109200
:1031A000C100E0914206F091430652E0D52ED08254
:1031B000E0913E06F0913F061082E0914006F091CA
:1031C00041068FEC808310924A06E0914606F0910A
:1031D000470686E08083E0914406F09145068081B1
:1031E00080618083E0914406F0914506808188608B
:1031F0008083E0914406F091450680818068808359
:10320000E0914406F091450680818F7D80838EE2B7
:1032100090E00E94761F8C01DC0113961C921E9296
:1032200012971596FC92EE92149780E490E0179610
:103230009C938E9316971996FC92EE9218971B9674
:103240009C938E931A9755961C9255971D961C9297
:103250001E921C971F961C921E921E9781E05496F8
:103260008C9354972FEF3FEF53963C932E935297A6
:1032700051963C932E93509756968C93569757960B
:103280001C92579759961C921E9258978AE095E087
:1032900011969C938E9387E090968C93909789E0FB
:1032A0005F968C935F9788E05E968C935E978DE037
:1032B0005D968C935D978BE05C968C935C97919672
:1032C0001C9291971093DE060093DD065B96DC92CC
:1032D0005B978CE35A968C9388E00E945D17F80107
:1032E00080A10E945D17D80190968C919097082E2E
:1032F000000C990BFC01E05FF94FE491F0E0EE0F58
:10330000FF1FE450FA4F25913491F80137A326A30B
:10331000FC01EC5DF94FE4919C96EC939C975E96D2
:103320008C915E97082E000C990BFC01E05FF94F21
:10333000E491F0E0EE0FFF1FE450FA4F2591349135
:10334000F80131A720A7FC01EC5DF94FE4919D96AF
:10335000EC939D9791968C91919781113EC05C96CC
:103360008C910E945D17F801858D0E945D17D80130
:103370005D968C915D97082E000C990BFC01E05F27
:10338000F94FE491F0E0EE0FFF1FE450FA4F259162
:103390003491F80135A324A3FC01EC5DF94FE491CD
:1033A0009B96EC939B975C968C915C97082E000CF7
:1033B000990BFC01E05FF94FE491F0E0EE0FFF1F85
:1033C000E450FA4F25913491F80133A322A3FC0174
:1033D000EC5DF94FE4919A96EC93F80181A1882372
:1033E00009F434C0FFB6F89480919605811124C089
:1033F000EAE1F6E08491EEE2F6E09491E82FF0E065
:10340000EE0FFF1FEA5FF94FA591B491EC91E9230C
:1034100021F461E08AE00E94C3098AE00E945D17FE
:103420008CB580618CBD8CB580648CBD8DE00E94B4
:103430005D178BE00E945D17809196058F5F8093EA
:103440009605FFBE80E58CBD81E08DBDD8015F96FD
:103450008C9187FD1EC00E945D1761E0F801878D89
:103460000E94C30961E070E080E090E00E940F0AD2
:1034700060E0D8015F968C910E94C3096AE070E019
:1034800080E090E00E940F0A61E0F801878D0E94C1
:10349000C3096EEAC8010E94930A65EDC8010E9443
:1034A000930A60E8C8010E94930A68EAC8010E9472
:1034B000930A6FE3C8010E94930A63EDC8010E945A
:1034C000930A60E0C8010E94930A60E4C8010E9468
:1034D000930A6DE8C8010E94930A64E1C8010E9442
:1034E000930A60E2C8010E94930A60E0C8010E944A
:1034F000930A61EAC8010E94930A68ECC8010E941D
:10350000930A6AEDC8010E94930A62E1C8010E9411
:10351000930A61E8C8010E94930A6FECC8010E94F7
:10352000930A69EDC8010E94930A61EFC8010E94E5
:10353000930A6BEDC8010E94930A60E4C8010E94DF
:10354000930A64EAC8010E94930A66EAC8010E94CD
:10355000930A6EE2C8010E94930A6FEAC8010E94B2
:10356000930A1092DC061092DB0680E094E0E0E023
:10357000F1E0DF019C011D9221503040E1F7009104
:10358000DD061091DE0686E390E0D8011D969C933F
:103590008E931C971F961C921E921E9781E090E0BE
:1035A00053969C938E93529751969C938E935097DB
:1035B00054968C9362E775E0C8010E946C1867E727
:1035C00075E0C8010E946C188091DD069091DE06BE
:1035D000DC01ED91FC9104A0F5A1E02DEE24E39433
:1035E000F12C0AE010E020E830E04AE050E060E032
:1035F00070E009958091DD069091DE06DC01ED9189
:10360000FC9106A0F7A1E02D2CE630E042E350E06B
:103610006AE070E009958091DD069091DE060E94D7
:10362000D50A8091DB069091DC06892B11F40E946B
:103630007F168091DB069091DC06892B11F40E94A5
:10364000161700E010E0EAE0CE2ED12CFE013196F4
:103650007F018091DF069091E0068017910761F06D
:103660001093E0060093DF068091DB069091DC0664
:10367000892B11F40E941617C801B6010E94481F39
:10368000892B09F07BC01C8A1B8A1E8A1D8A188E12
:103690001F8A4AE0B701C8010E94DC1EF7010190B1
:1036A0000020E9F73197AF014E195F09B701CE014C
:1036B00043960E9434181A8E198E1C8E1B8E1E8EF5
:1036C0001D8E49E050E06AE775E0CE0149960E9400
:1036D00034188F89988D8B889C88AD8CBE8CA80EF1
:1036E000B91E8114910409F4F5C2892B99F0B50132
:1036F000CE0149960E94FB17882309F4EBC2298D5D
:103700003A8D8D8D9E8DB401820F931F0E9484216E
:10371000BE8EAD8EAD8CBE8CF2E0AF0EB11CB5018D
:10372000CE0149960E94FB17882309F4D8C2298D3F
:103730003A8D8D8D9E8D64E875E0820F931F0E94F7
:103740008421BE8EAD8E1A8219821C821B821E823B
:103750001D82BE01675E7F4FC7010E945518C701D9
:103760000E94D31689819A810E940B20898D9A8D9F
:103770000E940B208B899C890E940B20065F1F4FA3
:103780000E36110509F065CF81E090E09093DC06DC
:103790008093DB0620E034E0E0E0F1E0DF01A90106
:1037A0001D9241505040E1F70091DD061091DE0678
:1037B000D8011D961C921E921C9723E030E01F96A4
:1037C0003C932E931E9753969C938E9352975196AB
:1037D0009C938E93509754968C9367E875E0C8013C
:1037E0000E946C1867E775E0C8010E946C18809110
:1037F000DD069091DE06DC01ED91FC9104A0F5A1BF
:10380000E02DEE24E394F12C02E110E020E830E01A
:1038100042E150E060E070E009958091DD06909112
:10382000DE06DC01ED91FC9104A0F5A1E02D28E578
:1038300030E040E050E068E570E009958091DD06F9
:103840009091DE06DC01ED91FC9104A0F5A1E02D44
:103850002CE630E040E050E06CE670E0099564E072
:10386000E62EF12C08E210E028E030E046E150E0DE
:1038700062E070E08091DD069091DE060E94C71440
:10388000E090DD06F090DE06D701ED91FC91028418
:10389000F385E02DC7010995D701ED91FC910288D0
:1038A000F389E02D01E010E020E030E046E150E057
:1038B00066E070E0C7010995D701ED91FC9102889F
:1038C000F389E02D20E030E04DE350E066E070E069
:1038D000C7010995D701ED91FC910088F189E02D90
:1038E00020E230E04AE150E062E070E0C701099573
:1038F000D701ED91FC910088F189E02D20E230E0C4
:103900004AE150E069E070E0C701099521E04AE131
:1039100050E066E070E0C7010E94851522E04AE1B0
:1039200050E065E070E0C7010E94851524E049E39E
:1039300050E065E070E0C7010E94851528E049E38A
:1039400050E066E070E0C7010E948515D701ED9157
:10395000FC910688F789E02DC70109958091DD0665
:103960009091DE06DC01ED91FC9104A0F5A1E02D23
:10397000EE24E394F12C09E110E020E130E049E18C
:1039800050E06AE070E009958091DD069091DE06D6
:10399000DC01ED91FC9104A0F5A1E02D0AE310E01B
:1039A00020E130E04AE350E06AE070E00995809160
:1039B000DD069091DE06DC01ED91FC9104A0F5A1FD
:1039C000E02D00E410E020E230E042E150E060E26F
:1039D00070E009958091DD069091DE06DC01ED91A5
:1039E000FC9104A0F5A1E02D0CE210E022E530E00E
:1039F00042E150E062E570E009958091DD0690912A
:103A0000DE06DC01ED91FC9104A0F5A1E02D20E89B
:103A100030E04CE250E060E270E009958091DD0614
:103A20009091DE0602E110E0FC011587048726E193
:103A300030E03787268760E975E00E946C18809136
:103A4000DD069091DE06DC011D961C930E931C97FB
:103A500027E330E01F963C932E931E9762E975E0B2
:103A60000E946C188091DD069091DE060E94D50AB6
:103A70008091DB069091DC06019799F58091DD0637
:103A80009091DE06DC01ED91FC9100A0F1A1E02D0A
:103A9000E12CF12C00E110E020E130E040E050E0CA
:103AA0006AE570E009952091E7068091DD06909126
:103AB000DE0640E1E42EF12C222319F028EC30E060
:103AC00004C000E110E028EA30E040E050E06AE5A0
:103AD00070E00E941B138091DD069091DE060E942B
:103AE000D50A8091DB069091DC06019799F58091CB
:103AF000DD069091DE06DC01ED91FC9100A0F1A1C4
:103B0000E02DE12CF12C00E110E020E130E040E07C
:103B100050E06EE670E009952091E8068091DD06A0
:103B20009091DE0630E1E32EF12C222319F028E8F3
:103B300030E004C000E110E028E630E040E050E072
:103B40006EE670E00E941B138091DD069091DE0608
:103B50000E94D50A8091DB069091DC06019711F452
:103B60000E944B158091DB069091DC06019711F4C1
:103B70000E94AD148091DB069091DC06019711F450
:103B80000E9493148091DB069091DC06019711F45A
:103B90000E9450148091DB069091DC06019711F48D
:103BA0000E941514FF24F3948091E90681110AC044
:103BB000F092E9068091DB069091DC06019711F402
:103BC0000E94AD1481E090E00E94B61700E010E082
:103BD0008091DB069091DC06019719F4C8010E94E0
:103BE000CA1762E370E080E090E00E940F0A02339F
:103BF000110571F48091EA0681110AC0F092EA067B
:103C00008091DB069091DC06019711F40E949314D9
:103C10000F5F1F4F05361105D9F680E090E00E9436
:103C2000B6178091E906882351F01092E906809139
:103C3000DB069091DC06019711F40E94AD1481E03F
:103C40000E947C1768EE73E080E090E00E940F0A0B
:103C500080E00E947C178FEF9FEF0E94B61704E66A
:103C600010E08091DB069091DC06019719F4C80101
:103C70000E94CA1762E370E080E090E00E940F0AA1
:103C80000150110971F78091EA06882351F01092D2
:103C9000EA068091DB069091DC06019711F40E9400
:103CA000931480E090E00E94B61781E00E947C1798
:103CB00068EE73E080E090E00E940F0A80E00E94CE
:103CC0007C176CED75E080E090E00E940F0A0E9486
:103CD000CD046ACFCE0149960E9422181BCDCE0199
:103CE00049960E9422182FCD8091E1069091E2061C
:103CF0000C940B20CF93DF93E2E3F6E01382128261
:103D000088EE93E0A0E0B0E084839583A683B78338
:103D100026E435E03183208325EC30E035872487A5
:103D200024EC30E03787268720EC30E0318B208B85
:103D300021EC30E0338B228B22EC30E0358B248B6E
:103D400026EC30E0378B268B118E128E138E148E5C
:103D5000EFECF6E01382128284839583A683B78307
:103D600088E595E091838083CBEDD6E01F821E82AB
:103D7000198618861B861A8640E050E069E775E0D0
:103D800081EE96E00E9434181D821C8240E050E0D3
:103D900069E775E081EE96E00E9434181C861D8666
:103DA0008FEF9FEF998B888B1E861F861B8A1A8A3E
:103DB0001C8ADF91CF910895BB274A3031F49923B3
:103DC00022F4BDE2909581959F4F0C94E81EBB278D
:103DD000FB015527AA27880F991FAA1FA41710F0C7
:103DE000A41B83955051B9F7A05DAA3308F0A95DD3
:103DF000A193009779F7B111B1931192CB010C9473
:103E0000011FDC01FC01672F71917723E1F73297E5
:103E100004C07C916D9370836291AE17BF07C8F3A5
:103E200008952F923F924F925F926F927F928F925E
:103E30009F92AF92BF92CF92DF92EF92FF920F9339
:103E40001F93CF93DF93CDB7DEB7CA1BDB0B0FB643
:103E5000F894DEBF0FBECDBF09942A883988488800
:103E60005F846E847D848C849B84AA84B984C88496
:103E7000DF80EE80FD800C811B81AA81B981CE0F8D
:103E8000D11D0FB6F894DEBF0FBECDBFED01089572
:103E900097FB072E16F4009407D077FD09D00E94F7
:103EA0005C1F07FC05D03EF4909581959F4F0895C7
:103EB000709561957F4F0895AA1BBB1B51E107C008
:103EC000AA1FBB1FA617B70710F0A61BB70B881FAA
:103ED000991F5A95A9F780959095BC01CD01089539
:103EE000EE0FFF1F0590F491E02D0994CF93DF931F
:103EF0008230910510F482E090E0E091F206F091BA
:103F0000F30620E030E0C0E0D0E0309711F14081CE
:103F1000518148175907C0F04817590761F4828149
:103F20009381209719F09B838A832BC09093F3068B
:103F30008093F20626C02115310519F04217530768
:103F400018F49A01BE01DF01EF010280F381E02D38
:103F5000DCCF2115310509F1281B390B243031053F
:103F600090F412968D919C9113976115710521F033
:103F7000FB019383828304C09093F3068093F2063F
:103F8000FD01329644C0FD01E20FF31F819391932E
:103F9000225031092D933C933AC02091F006309184
:103FA000F106232B41F42091020530910305309353
:103FB000F1062093F00620910005309101052115AE
:103FC000310541F42DB73EB74091040550910505E8
:103FD000241B350BE091F006F091F106E217F30790
:103FE000A0F42E1B3F0B2817390778F0AC014E5F69
:103FF0005F4F2417350748F04E0F5F1F5093F106AF
:104000004093F0068193919302C0E0E0F0E0CF018D
:10401000DF91CF9108950F931F93CF93DF93009774
:1040200009F48CC0FC013297138212820091F206CF
:104030001091F3060115110581F420813181820F61
:10404000931F2091F0063091F1062817390779F572
:10405000F093F106E093F00671C0D80140E050E023
:10406000AE17BF0750F412962D913C911397AD01F6
:104070002115310509F1D901F3CF9D01DA0133830F
:10408000228360817181860F971F8217930769F4DD
:10409000EC0128813981260F371F2E5F3F4F318376
:1040A00020838A819B8193838283452B29F4F0931B
:1040B000F306E093F20642C01396FC93EE93129738
:1040C000ED01499159919E01240F351FE217F30725
:1040D00071F480819181840F951F029611969C93B3
:1040E0008E938281938113969C938E931297E0E036
:1040F000F0E0D80112968D919C911397009719F0DA
:10410000F8018C01F6CF8D919C9198012E5F3F4F65
:10411000820F931F2091F0063091F106281739077E
:1041200069F4309729F41092F3061092F20602C057
:10413000138212821093F1060093F006DF91CF9163
:104140001F910F910895A0E0B0E0E9EAF0E20C942D
:10415000151FEC01009721F4CB010E94761FB8C017
:10416000FC01E60FF71F9C0122503109E217F3070B
:1041700008F4ACC0D9010D911C91119706171707CF
:10418000B0F00530110508F49FC0C80104978617E8
:10419000970708F499C002501109061B170B0193E9
:1041A00011936D937C93CF010E940B208DC05B0116
:1041B000A01AB10A4C01800E911EA091F206B09196
:1041C000F30640E050E0E12CF12C109709F44AC0CE
:1041D000A815B905D1F56D907C901197630182E027
:1041E000C80ED11CCA14DB0480F1A3014A195B0973
:1041F0006A0182E0C80ED11C1296BC9012971396E9
:10420000AC91B5E0CB16D10440F0B282A3835183C8
:104210004083D9016D937C930AC00E5F1F4FC30189
:10422000800F911FF90191838083EB2DFA2FE11408
:10423000F10431F0D7011396FC93EE93129744C02A
:10424000F093F306E093F2063FC08D919C91119795
:104250004817590708F4AC017D0112960D90BC91E6
:10426000A02DB3CF8091F0069091F10688159905A5
:10427000E1F446175707C8F48091000590910105B5
:10428000009741F48DB79EB7409104055091050504
:10429000841B950BE817F907C8F4F093F106E09337
:1042A000F006F901718360830FC0CB010E94761F75
:1042B0007C01009759F0A801BE010E947221CE0135
:1042C0000E940B20C70104C0CE0102C080E090E034
:1042D000CDB7DEB7EEE00C94311F81E090E0F894AA
:1042E0000C948B21FB01DC0102C001900D92415026
:1042F0005040D8F70895FB01DC018D9101908019A1
:104300000110D9F3990B0895FB01DC0101900D9286
:104310000020E1F7089513E0C1EDD3E004C0FE01F1
:104320000E94701F2196C23DD107C9F7F894FFCFB4
:10433000000000000000000000000000000000007D
:10434000000000000000000000000000000000006D
:10435000000000000000000000000000000000005D
:1043600000000000000000000000000000000080CD
:10437000808000000000000000000000000000003D
:10438000008080C0C00000000000000000000000AD
:10439000000000000000000000000000000000001D
:1043A000000000000000000000000000000000000D
:1043B00000000000000000000000000000000000FD
:1043C0000000000080C0E0F0F8FCF8E00000000011
:1043D000000000000000000000000000008080805D
:1043E000808000808000000000808080808000FF4E
:1043F000FFFF0000000080808080000080800000BF
:1044000080FFFF808000808000808080800080802E
:104410000000000000808000008C8E84000080F886
:10442000F8F880000000000000000000000000001C
:10443000F0F0F0F0F0F0F0F0F0F0F0F0E0E0C0803C
:1044400000E0FCFEFFFFFF7FFFFFFFFFFF0000001B
:104450000000000000000000000000FEFFC7010196
:10446000010183FFFF00007CFEC70101010183FF02
:10447000FFFF0038FEC78301010183C7FFFF000073
:1044800001FFFF010100FFFF0701010100007FFFA5
:1044900080000000FFFF7F0000FFFFFF000001FF22
:1044A000FFFF01000000000000000000000000000D
:1044B000030F3F7F7FFFFFFFFFFFFFFFE7C7C78FB0
:1044C0008F9FBFFFFFC3C0F0FFFFFFFFFFFCFCFC9F
:1044D000FCFCFCFCFCF8F8F0F0E0C0000103030376
:1044E00003030103030000000001030303030101B0
:1044F00003010000000103030303010103030000A3
:10450000000303000000030300000000000000019E
:104510000303030303010000000103010000000383
:104520000301000000000000000000000000000087
:1045300000000080C0E0F0F9FFFFFFFFFF3F1F0F0A
:1045400087C7F7FFFF1F1F3DFCF8F8F8F87C7DFFD9
:10455000FFFFFFFFFFFFFF7F3F0F0700303000002E
:10456000000000000000000000000000000000004B
:1045700000000000FEFEFC00000000000000000043
:1045800000000000000000000000000000E0C0008B
:1045900000000000000000000000303000000000BB
:1045A000000000000000000000000000000000000B
:1045B00000C0FEFFFFFFFFFFFFFFFFFF7F7F3F1FEA
:1045C0000F071F7FFFFFF8F8FFFFFFFFFFFEF8E078
:1045D000000000010000000000000000FEFE0000DE
:1045E00000FCFEFC0C06060EFCF80000F0F81C0EA9
:1045F0000606060CFFFFFF0000FEFE00000000FCA8
:10460000FEFC00183C7E66E6CE84000006FFFF0636
:1046100006FCFEFC0C0606060000FEFE0000C0F8CC
:10462000FC4E4646464E7C7840183C76E6CECC8022
:10463000000000000000000000000000000000007A
:104640000000000001070F1F1F3F3F3F3F1F0F03E8
:104650000000000000000000000000000F0F00003C
:10466000000F0F0F000000000F0F000003070E0CDB
:1046700018180C060F0F0F0000010F0E0C180C0F6E
:10468000070100040E0C180C0F070000000F0F00AC
:10469000000F0F0F0000000000000F0F00000007C8
:1046A000070C0C181C0C060600040E0C180C0F0747
:1046B00000000000000000000000000000000000FA
:1046C00000000000000000000000000000000000EA
:1046D00000000000000000000000000000000000DA
:1046E00000000000000000000000000000000000CA
:1046F00000000000000000000000000000000000BA
:1047000000000000000000000000000000000000A9
:104710000000000000000000000000000000000099
:104720000000000000000000000000000000000089
:104730000000F40680000000000095088B17B90EF9
:10474000B80EDF07560D4F0D270D430D370D570DD2
:10475000260D7E087D08FC0456064D0C2F0CB80B68
:10476000590B000103070F1F3F7F0080C0E0F0F8E6
:10477000FCFE0000000064048B17FC03AB042D0456
:104780000B041F0400000000890E590EB90E330EF1
:10479000510E420E340E0000000093088B17B90E24
:1047A000B80E424F4F54000D0A0050726F67726589
:1047B00073732000202500456C657661746F72006C
:0447C0003100300094
:107E0000112484B714BE81FFF0D085E080938100F7
:107E100082E08093C00088E18093C10086E0809377
:107E2000C20080E18093C4008EE0C9D0259A86E02C
:107E300020E33CEF91E0309385002093840096BBD3
:107E4000B09BFECF1D9AA8958150A9F7CC24DD24C4
:107E500088248394B5E0AB2EA1E19A2EF3E0BF2EE7
:107E6000A2D0813461F49FD0082FAFD0023811F036
:107E7000013811F484E001C083E08DD089C08234E0
:107E800011F484E103C0853419F485E0A6D080C0E4
:107E9000853579F488D0E82EFF2485D0082F10E0AE
:107EA000102F00270E291F29000F111F8ED06801E7
:107EB0006FC0863521F484E090D080E0DECF843638
:107EC00009F040C070D06FD0082F6DD080E0C81688
:107ED00080E7D80618F4F601B7BEE895C0E0D1E017
:107EE00062D089930C17E1F7F0E0CF16F0E7DF06D8
:107EF00018F0F601B7BEE89568D007B600FCFDCFD4
:107F0000A601A0E0B1E02C9130E011968C91119780
:107F100090E0982F8827822B932B1296FA010C0160
:107F200087BEE89511244E5F5F4FF1E0A038BF0790
:107F300051F7F601A7BEE89507B600FCFDCF97BE46
:107F4000E89526C08437B1F42ED02DD0F82E2BD052
:107F50003CD0F601EF2C8F010F5F1F4F84911BD097
:107F6000EA94F801C1F70894C11CD11CFA94CF0C13
:107F7000D11C0EC0853739F428D08EE10CD085E9AC
:107F80000AD08FE07ACF813511F488E018D01DD067
:107F900080E101D065CF982F8091C00085FFFCCF94
:107FA0009093C60008958091C00087FFFCCF809118
:107FB000C00084FD01C0A8958091C6000895E0E648
:107FC000F0E098E1908380830895EDDF803219F02E
:107FD00088E0F5DFFFCF84E1DECF1F93182FE3DFCA
:107FE0001150E9F7F2DF1F91089580E0E8DFEE27F6
:047FF000FF270994CA
:027FFE00040479
:0400000300007E007B
:00000001FF